:020000002100DD
:02000300216377
:02001300216F5B
:02000B0021765C
:0200230021D6E4
:10010000C299C29875B800759800C28EC28C758D60
:1001100000758B007C007DFF7F007E0079007A00F7
:100120007B007800C291D2908002C29075A8817540
:100130008805758916758C9C758A9D513490700060
:10014000858260858361BE000280FB51A7BC00539D
:10015000B29079047AFA7BFADBFEDAFAD9F6BC00BF
:10016000C980ED7E01BC000675A88675B80432759D
:10017000885575A8823285827085837185608285F5
:100180006183E58BF0A3E58DF0A3858260858361B3
:10019000758B18758D00DD047C017E00857082856D
:1001A000718332758780758DCE758BCE7598E8908A
:1001B00070007A0179FF75880175892075A890D241
:1001C0008EE4E0A3F599B900FDBA00067805513434
:1001D000801879FF80F0C299E4D908DA06EFF59922
:1001E000C28E32E0A3F5996FFF32C29875892075EF
:1001F0008DCE758BCE7598D475878075A800D28EFC
:100200007587803098FDE599C298C28EB4000221AE
:100210000078045134758901D2915122C291512242
:1002200080F6758CFF758A06D28C308DFDC28CC22B
:100230008DD2912251797430518274305182743050
:0C0240005189743051897408518974018F
:10024C00518974065189740F5189B8000790003098
:10025C0079138011B804028007902500790D800570
:10026C00790E902600E493A35190D9F9227AFA7B67
:10027C00FADBFEDAFA22904000F05179229040002D
:10028C00F0519F22AA82AB83904001F0519F8A8249
:10029C008B8322904002E020E7FC225189740151AB
:0802AC008974065189740F22C8
:1000300050756C736520656C20626F746F6E203133
:0D2500004573706572616E646F2030304865
:0E260000416C61726D61204269702D426970FB
:00000001FF
