:020000002100DD
:0100030032CA
:01000B0032C2
:0100130032BA
:01001B0032B2
:0100230032AA
:100100007426312631497438312631497438312BFF
:100110007438312B7404312B7401312B7408312B5A
:10012000740F312B8035904000F022904000F03168
:100130003222904002E020E7FC22A882A98390406E
:1001400001F0313288828983227F027EFADEFEDF6F
:10015000FA227FFA7EFADEFEDFFA227480312B90DB
:100160000F817BF271DE74C0312B9010F07BF27145
:10017000DE7590F03152741C312BE590B4F00280A2
:10018000F37401312B7480312B90005071BE74C018
:10019000312B90006671BE75900FE590B40FFB7522
:1001A00090F0E590B4F00280F9FF75900FE5904F64
:1001B000B4E70674317B018009B4EBE374327B024F
:1001C000417E75A880759890758700D29C74E75120
:1001D0006A51727401312B7480312B900F007B02B5
:1001E00071CE74C0312B900F107B0071CE75891ABF
:1001F000758CCE758ACE758D3C758BAF75B80475D0
:10020000A8807588057D14D28ED28C748C312B51C8
:1002100072516A5172516A313A5172516A313A518E
:1002200072516A313A5172516A313A5172516A319E
:0E0230003A5172B4FF02801A516A313A51728B
:10023E00B4FF02800F516A313A5172B4FF0280044A
:10024E00516A313A74CD312B75A00F5172516A75C6
:10025E00A0F0313A5172516A313A80FEF5993099D7
:10026E00FDC299223098FDC298E5992274CD312BAA
:10027E007400516A75A880759890758700D29C7429
:10028E0001312B7480312B900F207B0471DE74C0F2
:10029E00312B900F307B0071DE75900FE590B40F0F
:1002AE00FB7590F0E590B4F00280F9FF75900FE5C4
:1002BE00904FB4E705754001800EB4EB0575400212
:1002CE008006B4EDD7754003E540516A5172740152
:1002DE00312B7480312B900F447B0271DE74C03150
:1002EE002B900F577B0871DE75900FE590B40FFBC6
:1002FE007590F0E590B4F00280F9FF75900FE590DF
:10030E004FB4E70674317B01804FB4EB0674327B39
:10031E00028046B4ED0674337B03803DB4D7067479
:10032E00347B048034B4DB0674357B05802BB4DD5E
:10033E000674367B068022B4B70674377B078019A5
:10034E00B4BB0674387B088010B4BD0674397B09C3
:10035E008007B47B9B74307B00313A8543448542E1
:10036E00438541428B410C75900FE590B40FFB75A0
:10037E0090F0E590B4F00280F9FF75900FE5904F84
:03038E00B477023F
:10039100800241F6E544516A5172E543516A517256
:1003A100E542516A5172E541516A51727401312B32
:1003B1007480312B900F707B0271DE80FEE49331EB
:1003C1003AA30BBB10F77B008882898322E4933127
:1003D1003AA30BBB0DF77B008882898322E493311A
:0D03E1003AA30BBB14F77B008882898322AE
:0F00300050756C736520756E61207465636C612B
:0F0040007061726120636F6E74696E7561722EEC
:10005000313A4672656375656E63696D6574726F7A
:0E006600323A47656E657261646F72205343D3
:0B0F00004672656375656E6369613AB7
:0D0F10005469656D706F20656E204F4E3A7C
:100F2000456C6967652044757479204379636C6505
:100F3000312D3235252020322D3530252020332DFE
:030F40003735251D
:100F44004672656375656E63696120646573656186
:020F54006461D6
:0C0F57005B312D3230303020487A5D3A9A
:100F700047656E6572616E646F206F6E64612E2EC0
:010F80002E42
:100F8100204672656375656E63696D6574726F2065
:100F9100792047656E657261646F722064652053C4
:030FA1002E432EAE
:1010F0005265616C697A61646F20706F7220536110
:101100006E746961676F204A2E20476F6E7A616C3A
:02111000657AFE
:00000001FF
